:100000000EC068C01CC04FC01AC019C018C017C0AD
:1000100016C015C015C013C012C011C010C01124E5
:100020001FBECFE5D1E0DEBFCDBF20E0A0E6B0E04F
:1000300001C01D92AF36B207E1F7D2D00AC1E0CFBE
:100040001F920F920FB60F9211248F9380916E0022
:1000500080FF02C0C09A01C0C09880916D0081509D
:1000600080936D0080916D00811104C089B78F7EEF
:1000700089BF13C080916D008B3029F480916C0092
:1000800080936E000AC080916E00869580936E000A
:1000900080916E00806880936E008F910F900FBEEC
:1000A0000F901F9018951F920F920FB60F92112468
:1000B0008F939F9380916A0090916B00019690932B
:1000C0006B0080936A009F918F910F900FBE0F90ED
:1000D0001F9018951F920F920FB60F9211248F93B5
:1000E0009F93B29B06C01FBC10926B0010926A00D7
:1000F00008C080916A0090916B0090936900809392
:1001000068009F918F910F900FBE0F901F901895D0
:10011000B89AC09A82E08ABD83BF88E689BD0895F7
:10012000B99AC198BA98C29A84E880BF89E38DBD14
:1001300089B7806489BF85B7816085BF8BB78064CC
:100140008BBF089590916D0091110DC080936C004C
:100150008CE080936D0010926E0088B7806188BF3C
:1001600089B7806189BF0895CF93DF93EC018881BF
:10017000882349F0219690916D009111FCCFE2DF28
:1001800089918111F8CF80916D008111FCCF8DE0B4
:10019000D9DF80916D008111FCCF8AE0D3DFDF9140
:1001A000CF9108951092690010926800C19A20E5DD
:1001B0002A95F1F7C1988FE798E321E081509040AC
:1001C0002040E1F700C00000809168009091690034
:1001D0008139914020F010926900109268000895D2
:1001E00097DF9EDF7894DEDF809168009091690050
:1001F0004AE060E670E004D080E690E0B5DFF3CF3F
:10020000BB27FB015527AA27880F991FAA1FA417F0
:1002100010F0A41B83955051B9F7A05DAA3308F0E4
:10022000A95DA193009779F7B111B1931192CB0118
:1002300000C0DC01FC01672F71917723E1F7329751
:1002400004C07C916D9370836291AE17BF07C8F3B1
:060250000895F894FFCFB1
:00000001FF
